:020000040800F2
:100000002016002021010008550D0008970B00085C
:10001000CF0B0008D5010008A91600080000000059
:10002000000000000000000000000000590F000860
:100030005D07000800000000010E0008BD10000868
:100040003B0100083B0100083B0100083B010008A0
:100050003B0100083B0100083B0100083B01000890
:100060003B0100083B0100083B0100083B01000880
:100070003B0100083B0100083B0100083B01000870
:100080003B0100083B0100083B0100083B01000860
:100090003B0100083B0100083B0100083B01000850
:1000A0003B0100083B0100083B0100083B01000840
:1000B000351100083B0100083B0100083B01000826
:1000C0003B0100083B0100083B0100083B01000820
:1000D0003B010008D91200083B0100083B01000861
:1000E0003B0100083B0100083B010008DFF80CD091
:1000F00000F03AF8004800476D170008201600206D
:10010000EFF30980704780F309887047EFF30880A8
:10011000704780F30888704740BA7047C0BA70478C
:100120000648804706480047FEE7FEE7FEE7FEE791
:10013000FEE7FEE7FEE7FEE7FEE7FEE7D510000874
:10014000ED00000840EA01039B0703D009E008C95D
:10015000121F08C0042AFAD203E011F8013B00F88C
:10016000013B521EF9D27047064C074D06E0E0688D
:1001700040F0010394E8070098471034AC42F6D3EE
:10018000FFF7B8FF94340008B434000872B60C4886
:1001900001F018F90B4800F01FF80B4840680B49B4
:1001A0000860084600680A49086007480468204655
:1001B000FFF7AFFF06480068804700BFFEE700007A
:1001C0000038014000640040004000081800002092
:1001D0001400002000BFFEE710B504460B4884421F
:1001E00009D10121480600F01DFE00214FF00070EA
:1001F00000F018FE08E00121880600F013FE00213F
:100200004FF0806000F00EFE10BD00000064004062
:1002100010B50021837A012202FA03F13D4A1268E7
:1002200042F001023B4B1A603A4A1C3212688A4380
:10023000384B1C331A60027BCAB9364A0C3212683A
:100240008A43344B0C331A604288C38842EA034322
:10025000304A4032847A42F834300288838842EA55
:1002600003432C4A4032847A02EBC4025360027B7F
:10027000012A19D1274A0C3212680A43254B0C3344
:100280001A604288038842EA0343224A4032847A51
:1002900042F83430C288838842EA03431D4A403220
:1002A000847A02EBC4025360C27A3AB9194A121D29
:1002B00012688A43174B1B1D1A6006E0154A121D6F
:1002C00012680A43134B1B1D1A60028932B9114A86
:1002D000143212688A430F4B14331A600289012AC0
:1002E00006D10C4A143212680A430A4B14331A60BE
:1002F000427B012A06D1074A1C3212680A43054B89
:100300001C331A60034A126822F00102014B1A6082
:1003100010BD00000066004030B5024600200023FA
:10032000146824F002041460146844F0010414609A
:1003300000E05B1C546804F001041CB94FF6FF7424
:10034000A342F6D1546804F001040CB900206CE01B
:100350008C79012C04D1146844F08004146003E00B
:10036000146824F080041460CC79012C04D1146842
:1003700044F04004146003E0146824F04004146066
:100380000C7A012C04D1146844F02004146003E0BA
:10039000146824F0200414604C7A012C04D11468F1
:1003A00044F01004146003E0146824F01004146096
:1003B0008C7A012C04D1146844F00804146003E022
:1003C000146824F008041460CC7A012C04D1146859
:1003D00044F00404146003E0146824F0040414607E
:1003E0008C78A407CD7844EA05640D7944EA054485
:1003F0004D7944EA05540D886D1E2C43D461146870
:1004000024F001041460002300E05B1C546804F035
:1004100001041CB14FF6FF74A342F6D1546804F0F6
:1004200001040CB1002000E0012030BD0246002094
:1004300019B9D36803F0030006E0012903D1136959
:1004400003F0030000E00020704710B500F5D873FA
:1004500003EB01131B6803F004031372137A53B9FF
:1004600000F5D87303EB01131B6840F2FF7404EA34
:100470005353136009E000F5D87303EB01131B68B5
:100480006FF0604404EAD303536000F5D87303EBC4
:1004900001131B6803F00203537200F5D87303EBDA
:1004A00001135B6803F00F03937200F5D87303EB3D
:1004B00001135B681B0AD37400F5D87303EB0113B7
:1004C0009B68D37200F5D87303EB01139B681C0A79
:1004D000147300F5D87303EB01139B681C0C547361
:1004E00000F5D87303EB01139B681B0E937300F5A3
:1004F000D87303EB0113DB68D37300F5D87303EBF8
:100500000113DB681C0A147400F5D87303EB0113A4
:10051000DB681C0C547400F5D87303EB0113DB6823
:100520001B0E937421B9C36843F02003C36003E03A
:10053000036943F02003036110BD10B5024600209B
:10054000936803F08063B3F1806F00D110E093688B
:1005500003F00063B3F1006F01D1012008E093685C
:1005600003F08053B3F1805F01D1022000E004204A
:10057000042874D002F5C07303EB00131B6803F06A
:10058000010402F5C07303EB00131C600B7A7BB906
:100590004B7A0C8843EA445302F5C07404EB001410
:1005A0002468234302F5C07404EB0014236010E0B8
:1005B0000B7A4C6843EAC4034C7A234302F5C074B7
:1005C00004EB00142468234302F5C07404EB001408
:1005D00023608B7A03F00F038B7202F5C07303EB79
:1005E00000135B6823F00F0402F5C07303EB0013E4
:1005F0005C6002F5C07303EB00135B688C7A2343E5
:1006000002F5C07404EB001463608B7B1C064B7B0B
:1006100044EA03440B7B44EA0323CC7A234302F5E8
:10062000C07404EB0014A3608B7C1C064B7C44EA72
:1006300003440B7C44EA0323CC7B234302F5C074C0
:1006400004EB0014E36002F5C07303EB00131B68B6
:1006500043F0010402F5C07303EB00131C6010BDEE
:1006600010B50246002321B1012907D002290FD17C
:1006700009E090681D4C00EA04030BE090681C4CF4
:1006800000EA040306E090681A4C00EA040301E063
:10069000002300BF00BF184C181BA34216D007DC74
:1006A00083B16FF08060184470B1022818D111E056
:1006B000B0F5007F10D0114C204448B1B0F5003F98
:1006C0000ED10BE002230DE000230BE0002309E034
:1006D000002307E0012305E0012303E0012301E0FB
:1006E000002300BF00BFD8B210BD0000030000040B
:1006F0000003000800000310000100080001FFF7DC
:1007000070B503460C464FF0FF30002221E053F84D
:100710002210050E85EA11650F4E56F8255085EA20
:100720000020C1F3074585EA106556F8255085EA93
:100730000020C1F3072585EA106556F8255085EAA3
:10074000002081EA1065EDB256F8255085EA0020B8
:10075000521CA242DBD370BD442F0008704700B585
:10076000034603E04FF47A7000F005F8181EA3F179
:100770000103F7D100BD00EBC001C9004FF0E0223A
:100780005161002191610521116100BF4FF0E0210D
:10079000096901F480310029F8D004214FF0E022EA
:1007A0001161704730B5044604254FF4302000F045
:1007B000A5F80546042D17D10C48006940F0020049
:1007C0000A49086108464461006940F04000086138
:1007D0004FF4302000F092F805460448006941F6D5
:1007E000FD71084001490861284630BD00200240E3
:1007F00004200B49C96801F0010109B101200EE094
:100800000749C96801F0040109B1022007E0044961
:10081000C96801F0100109B1032000E0042070470D
:10082000002002400348006940F08000014908614F
:10083000704700000020024070B504460D460426B3
:10084000F00200F05BF80646042E11D10948006959
:1008500040F00100074908612580F00200F04EF8E1
:1008600006460448006941F6FE71084001490861E6
:10087000304670BD0020024078B506460C4604257F
:1008800000200090E80200F039F80546042D24D13C
:100890001348006940F00100114908613480E80202
:1008A00000F02CF80546042D10D1B01C0090200C4F
:1008B00000990880E80200F021F805460848006920
:1008C00041F6FE7108400649086106E004480069E7
:1008D00041F6FE71084002490861284678BD0000D3
:1008E00000200240024803494860034848607047BE
:1008F0002301674500200240AB89EFCD00B50246D9
:100900000423FFF775FF034603E0FFF771FF03467B
:10091000521E012B01D1002AF7D102B90523184636
:1009200000BD000070B50446B4F1006F02D3074863
:10093000844201D3012070BD2046FFF733FF0546F6
:10094000042D01D10020F6E70220F4E700000108A1
:1009500010B5FFF767FF002010BD0000F0B5064698
:100960000C461546114A04B10DB90120F0BDD2F86C
:1009700000C00F48844501D00420F7E79788B742AC
:1009800001D00420F2E7D388B3F57E7F01DD042097
:10099000ECE7002104E002F10800405C6054491CCF
:1009A0009942F8D32B800020E0E7000000FC00080B
:1009B0005AA55AA510B5FFF795FF002010BD0000FD
:1009C0002DE9F04781460F4615462B4E07B115B964
:1009D0000120BDE8F087B5F57E7F01DD0120F8E755
:1009E000FFF7E8FF08B10320F3E73046FFF79AFF6F
:1009F00018B1FFF7ADFF0220EBE720493046FFF7C3
:100A00003BFF042803D0FFF7A3FF0320E1E7361DD7
:100A100049463046FFF710FF042803D0FFF798FF40
:100A20000320D6E7B61C29463046FFF705FF042809
:100A300003D0FFF78DFF0320CBE7B61C002415E0A1
:100A400017F80480601CA84203D2385C48EA0028EA
:100A500001E048F47F4830194146FFF7EDFE0428D5
:100A600003D0FFF775FF0320B3E7A41CAC42E7D324
:100A7000FFF76EFF0020ACE700FC00085AA55AA55E
:100A80002DE9F04102460025002600200023002425
:100A9000002791F803C00CF00F0591F803C00CF08B
:100AA000100CBCF1000F03D091F802C04CEA050510
:100AB00091F800C0BCF1000F31D0146800202BE089
:100AC0004FF0010C0CFA00F3B1F800C00CEA030679
:100AD0009E4220D183004FF00F0C0CFA03F7BC4369
:100AE00005FA03FC4CEA040491F803C0BCF1280F9A
:100AF00006D14FF0010C0CFA00FCC2F814C00AE059
:100B000091F803C0BCF1480F05D14FF0010C0CFA6D
:100B100000FCC2F810C0401C0828D1D31460B1F802
:100B200000C0BCF1FF0F34DD546800202EE000F15E
:100B3000080C4FF0010808FA0CF3B1F800C00CEAF9
:100B400003069E4221D183004FF00F0C0CFA03F7ED
:100B5000BC4305FA03FC4CEA040491F803C0BCF161
:100B6000280F05D100F1080C08FA0CF8C2F814801F
:100B700091F803C0BCF1480F07D100F1080C4FF009
:100B8000010808FA0CF8C2F81080401C0828CED3DF
:100B90005460BDE8F08100BFFEE72DE9F041044656
:100BA0000E4615461F462660002060602072607267
:100BB000082F01DD082000E03846A0722DB1A27A8E
:100BC000294604F10B00FFF7BDFABDE8F08100BF34
:100BD000FEE7000000B589B00121042000F032F9E1
:100BE0000121480600F00EF918208DF823004FF47B
:100BF0008050ADF8200003208DF8220008A9264877
:100C0000FFF73EFF48208DF823004FF40060ADF859
:100C1000200003208DF8220008A91F48FFF730FFAD
:100C200000208DF816003020ADF8140001208DF85A
:100C3000180002208DF8190001208DF817000020FF
:100C40008DF81D008DF81F008DF81E008DF81C001A
:100C50008DF81A008DF81B0005A91048FFF75CFB02
:100C600000208DF80E00ADF80400ADF80600ADF8D8
:100C70000800ADF80A0001208DF8100000208DF862
:100C80000F00ADF80C0001208DF8110001A8FFF74E
:100C9000BFFA09B000BD0000000801400064004038
:100CA00010B50446224600210148FFF7CEFB10BDD7
:100CB0000064004010B500210448FFF7B7FB00288E
:100CC00001DD012010BD0020FCE7000000640040B1
:100CD00070B50446002521460848FFF72EFC06465D
:100CE00004E06D1C0648854200D905E03146034802
:100CF000FFF7B6FC0128F4D100BF70BD00640040CE
:100D0000A086010010B50446FFF7ECFD2046FFF772
:100D100049FDFFF787FD10BD70B504460D46FFF78E
:100D2000E1FD29462046FFF787FDFFF77BFD70BDFB
:100D300070B504460D46FFF7D5FD29462046FFF75E
:100D40009BFDFFF76FFD70BD0146088870470146A7
:100D5000086870477047000070B5002100230F221B
:100D6000C47804B3154C246804F4E064C4F5E0646A
:100D7000210AC1F10403CA40447804FA03F18478DB
:100D80001440214309010E4C0678A155047804F063
:100D90001F050124AC4005786D11AD0005F1E0257B
:100DA000C5F8004109E0047804F01F050124AC40B7
:100DB000044D0678761145F8264070BD0CED00E034
:100DC00000E400E080E100E002490143024A1160D2
:100DD000704700000000FA050CED00E006480068CE
:100DE00000F4E06005490843001D03490860BFF3B3
:100DF0004F8F00BFFEE700000CED00E00000FA0599
:100E00007047000029B1064AD2690243044BDA61F7
:100E100004E0034AD2698243014BDA617047000063
:100E20000010024029B1064A12690243044B1A61BC
:100E300004E0034A12698243014B1A6170470000C3
:100E40000010024029B1064A92690243044B9A619C
:100E500004E0034A92698243014B9A6170470000A3
:100E60000010024029B1064AD2680243044BDA60FE
:100E700004E0034AD2688243014BDA607047000005
:100E80000010024030B500210022002400232D4D27
:100E90006D6805F00C0121B1042905D0082923D182
:100EA00005E0294D056022E0274D05601FE0254D36
:100EB0006D6805F47012234D6D6805F480340225C9
:100EC00005EB92421CB9214D554305600BE01D4DC9
:100ED0006D6805F400351DB11C4D5543056002E0F9
:100EE000194D5543056002E0174D056000BF00BF76
:100EF000144D6D6805F0F0010909154D6B5C05682E
:100F0000DD4045600F4D6D6805F4E061090A104D44
:100F10006B5C4568DD4085600A4D6D6805F4605185
:100F2000C90A0B4D6B5C4568DD40C560054D6D68B9
:100F300005F44041890B074D6B5CC568B5FBF3F5C3
:100F4000056130BD0010024000127A0000093D002A
:100F50000000002010000020704710B500F002F8DB
:100F600010BD00000CB500200190009033480068CF
:100F700040F480303149086000BF3048006800F418
:100F8000003000900198401C0190009818B9019819
:100F9000B0F5A06FF1D12948006800F4003010B11D
:100FA0000120009001E0002000900098012843D12A
:100FB0002348006840F01000214908600846006896
:100FC00020F0030008600846006840F00200086056
:100FD0001A48406819494860084640684860084611
:100FE000406840F4806048600846406820F47C1007
:100FF00048600846406840F4E810486008460068C9
:1010000040F08070086000BF0C48006800F000707D
:101010000028F9D00948406820F0030007494860DB
:101020000846406840F00200486000BF034840683E
:1010300000F00C000828F9D10CBD0000001002409F
:101040000020024010B50F48FFF77EFE4AF2A5517E
:10105000884207D00B48FFF755FE4AF2A5510948D0
:10106000FFF75AFE002409E0064901EB4400FFF7B0
:101070006BFE054921F81400601C84B2B4F5007FB2
:10108000F2DB10BD00FC00086001002010B509482B
:10109000FFF738FE002409E0074A32F81410054A29
:1010A00002EB4400FFF738FE601C84B2B4F5007F09
:1010B000F2DB10BD00FC0008600100200448D0E90C
:1010C00000305A1C40F100000149C1E9002070477E
:1010D0002800002010B51348006840F001001149B5
:1010E000086008464068104908400E4948600846B4
:1010F00000680E4908400B4908600846006820F463
:10110000802008600846406820F4FE0048604FF4E4
:101110001F008860FFF721FF4FF00060044908605E
:1011200010BD0000001002400000FFF8FFFFF6FEB7
:1011300008ED00E010B50121880700F01BF8012838
:1011400005D101F0E7FC0121880700F004F810BD8B
:10115000CA4302827047CA430282704721B10288A3
:1011600042F00102028004E002884FF6FE731A404A
:101170000280704730B50246002000230024158A03
:1011800005EA0103958905EA010413B10CB10120B8
:1011900000E0002030BD1AB183890B43838102E057
:1011A00083898B438381704701894FF6F872114020
:1011B00001817047002202881D4B98420ED01D4BC2
:1011C00098420BD0B0F1804F08D01B4B984205D00D
:1011D0001A4B984202D01A4B984204D14FF68F73A3
:1011E0001A404B881A43174B984207D0164B984227
:1011F00004D04FF6FF431A40CB881A4302808B88F5
:1012000083850B8803850A4B98420BD0094B984283
:1012100008D00E4B984205D00D4B984202D00D4B92
:10122000984201D10B7A0386012383827047000024
:10123000002C014000340140000400400008004040
:10124000000C00400010004000140040004001402D
:1012500000440140004801401FB501210846FFF746
:10126000D1FD4FF08040FFF79FFF002001900290DA
:101270000390ADF80A00ADF8060040F2E730ADF893
:1012800008004720ADF8040000208DF80C0001A9EB
:101290004FF08040FFF78EFF01218807FFF758FFCE
:1012A000012211469007FFF776FF4FF4C060FFF769
:1012B0008BFD1C208DF8000001208DF803008DF8B7
:1012C00001008DF802006846FFF746FD01218807FE
:1012D000FFF744FF1FBD000010B540F2255125481F
:1012E00000F0BEF8012844D1224800F075F92249E7
:1012F00008702248007868B908460078402833D141
:101300001F48007880BB01201C49087000201D493F
:10131000087029E019480078012813D11648007890
:101320000D2803D10220154908701DE012480078ED
:101330001549144A1278885412480078401C114903
:10134000087011E00D48007802280DD10A48007895
:101350000A2809D10020094908700B49094A127866
:10136000885401200649087040F22551014800F0D8
:101370000DF810BD003801401C00002026000020A0
:101380001D00002027000020FC00002010B50022D6
:10139000002340F66A14A14200D100BF0A120124C2
:1013A0009440A3B2DC43048010BD21B1828942F491
:1013B0000052828104E082894DF6FF731A408281D7
:1013C0007047000010B504462048844209D101212D
:1013D0008803FFF747FD00214FF48040FFF742FDEF
:1013E00032E01B48844209D101214804FFF71AFD6D
:1013F00000214FF40030FFF715FD25E01548844229
:1014000009D101218804FFF70DFD00214FF4802050
:10141000FFF708FD18E01048844209D10121C804F3
:10142000FFF700FD00214FF40020FFF7FBFC0BE06D
:101430000A48844208D101210805FFF7F3FC002186
:101440004FF48010FFF7EEFC10BD000000380140A3
:101450000044004000480040004C00400050004064
:1014600070B50246002400230025002040F66A16CD
:10147000B14200D100BFC1F3421501F01F030126A4
:1014800006FA03F3012D02D19689334006E0022DBE
:1014900002D1168A334001E0968A33400C120126AD
:1014A00006FA04F41688344013B10CB1012000E0B0
:1014B000002070BDF0B50346002400260025002062
:1014C00040F66A17B94200D100BF1846C1F3421472
:1014D00001F01F06012707FA06F5012C01D10C3097
:1014E00004E0022C01D1103000E014301AB107687A
:1014F0002F43076002E00768AF430760F0BD0000BC
:101500002DE9F04786B005460E460024A24600BFEE
:10151000A1460027B08900B100BF2F462C8A4CF6A7
:10152000FF700440F08804432C82AC894EF6F3101F
:101530000440B08831890843718908430443AC8171
:10154000AC8A4FF6FF400440B0890443AC8201A846
:10155000FFF798FC1F48874202D1DDF810A001E098
:10156000DDF80CA0A88900F4004040B10AEBCA00E5
:1015700000EB0A1031684900B0FBF1F807E00AEB14
:10158000CA0000EB0A1031688900B0FBF1F8642052
:10159000B8FBF0F004012009642101FB1089A8893F
:1015A00000F4004040B1322000EBC900B0FBF1F084
:1015B00000F00700044308E0322000EB091064212A
:1015C000B0FBF1F000F00F0004432C8106B0BDE841
:1015D000F08700000038014001468888C0F3080009
:1015E0007047000000B587B000200690029003907D
:1015F00004900590019001218803FFF723FC01214D
:101600000420FFF71FFC2648FFF7DCFE4FF40070B4
:10161000ADF8180018208DF81B0003208DF81A0073
:1016200006A92048FFF72CFA4FF48060ADF81800A7
:1016300004208DF81B0006A91A48FFF721FA4FF481
:10164000E13002900020ADF80C00ADF80E00ADF8CE
:101650001000ADF814000C20ADF8120002A91048DB
:10166000FFF74EFF4FF4A060FFF7AEFB25208DF88B
:10167000040001208DF805008DF806008DF80700A4
:1016800001A8FFF769FB01210548FFF78EFE012243
:1016900040F225510248FFF70DFF07B000BD0000E2
:1016A000003801400008014000BFFEE702E008C822
:1016B000121F08C1002AFAD170477047002001E0CC
:1016C00001C1121F002AFBD17047000004490868BD
:1016D000B0F1A53F01D1012070470020FCE70000D8
:1016E00000F8000810B5064C2068B0F15A3F04D14C
:1016F0002046FFF707FB012010BD0020FCE700009B
:1017000000F4000810B500200B4908700B49087060
:101710000B4908700B4908700B4908700B49087099
:101720000B490870002404E0204600F065F9601CB5
:10173000C4B2032CF8DB10BD3A0000203B000020AF
:101740003C0000203F00002040000020410000201D
:101750004200002001480078704700005A00002035
:1017600001480078704700005500002088B018A399
:101770000FCBCDE90623CDE90401002000900190B4
:1017800002900390FFF7AEFF20B9FFF79FFF08B16B
:10179000FEF7FCFCFFF726FFFFF71CFAFFF75CFDE6
:1017A00001F08AFAFFF74EFC0122694604A801F015
:1017B000B7F90CE0FFF77EFA012808D10848FFF7D7
:1017C0006FFA07498A7A08680B3101F0BBFAF1E732
:1017D000000102030405060708090A0B0C0D0E0F91
:1017E000E8000020014629B1086818B1486808B12E
:1017F000886810B94FF0FF307047044A88689060DD
:1018000008681060486850600020F5E7000E00206E
:1018100070B505460C4615B10CB1802C02DD4FF0B9
:10182000FF3070BD082C04DA2146284600F0DCFAAF
:1018300006E00120034908702146284600F0A8FA76
:101840000020EEE73A00002010B5002000F08CF8F0
:10185000002808DAFFF756FF2D48022243682D487A
:1018600001882D489847012000F07EF8002805DA0D
:10187000FFF748FF2648816801208847022000F0D2
:1018800073F8002842DA25480078401C2349087084
:10189000084600780F2801DD002008702049214A01
:1018A000128888181D490A781F49098800F0F4F940
:1018B000C4B21C48008820441A4908801A4800888D
:1018C000001B194908800846008800281CDD1748BD
:1018D0000078002814DD16480078401C1449087070
:1018E0000846007811490978884203DA022000F09E
:1018F0005DF80BE001200F49087000F057F805E093
:10190000022000F053F801E0FFF7FCFE10BD0000DC
:10191000000E0020520000200006002040000020A1
:101920008005002046000020440000203E000020EA
:101930003F0000203C0000200146032901DB00207D
:101940007047084850F8210028B10020054A42F8A5
:1019500021000120F4E70020024A42F8210000BFE4
:10196000EEE70000740500200146032901DB00209A
:1019700070470D4850F8210008B90020F8E70A48E0
:1019800050F82100012805D10020074A42F8210023
:10199000401EEDE7044850F82100401E024A42F87C
:1019A00021000120E4E7000074050020032800DB8B
:1019B000704718B940F2E931084A1160012803D193
:1019C00040F2E931054A5160022804D104490978FE
:1019D000491C024A916000BFEAE70000740500203C
:1019E0003D000020032800DB7047024A42F8201027
:1019F00000BFF9E774050020032800DB70470021D1
:101A0000024A42F8201000BFF8E7000074050020E9
:101A10002DE9F04105460F46287800F00F0600201A
:101A2000FFF78AFF002803DC4FF0FF30BDE8F081AC
:101A300024480078401C23490870084600780F2885
:101A400001DD002008701F480078B04209D01E4810
:101A5000032243681D4801881D4898476FF0010024
:101A6000E4E700240EE0194800882044B0F5006F38
:101A700006DA601C285C154909882144144A505430
:101A8000601C84B2072CEEDB10480088C01D0F4993
:101A90000880084600880F49098888420ADBFFF75A
:101AA00031FE0948002243680A48018808489847DF
:101AB0000020BBE70120084908700020FFF776FFEF
:101AC0000120B3E742000020000E00205200002059
:101AD00000060020500000203B0000202DE9F041CE
:101AE00005460F46287800F00F004FF6FF7101EA17
:101AF000002668780643082E03DA4FF0FF30BDE871
:101B0000F081B6F5006F05DD022000F021F96FF0DD
:101B10000100F4E711480680002405E0A01C285CC1
:101B20000F490855601C84B2B81EA042F6DC0D496E
:101B30000880002000F00CF900200B4908700120FB
:101B40000A4908700020FFF731FF0020084908709B
:101B500008480168002088470020D0E75000002096
:101B60000006002052000020410000203B00002021
:101B700042000020000E002070B504460E4620787A
:101B800000F00F050120FFF7D7FE002802DC4FF020
:101B9000FF3070BD21480078022801D1C01EF8E74F
:101BA00000201F490870032D06DB1E4881680420B1
:101BB00088476FF00100ECE7022D05D119488168D4
:101BC00006208847681FE4E7012D06D1012014494B
:101BD0000870FFF7EBFE0120DBE760781249087020
:101BE000A0787F2803DCA078104908700CE0A0786A
:101BF000F12806DBA078F92803DC01200B490870E6
:101C000002E07F200949087000200949087001217D
:101C10000220FFF7E7FE0020BBE700005400002091
:101C20003C000020000E00203E0000203D0000206F
:101C30003F0000202DE9F04106460F46307800F0C5
:101C40000F05072D00DC1DB94FF0FF30BDE8F08116
:101C5000002405E0601C305C06490855601C84B215
:101C6000AC42F7DB04480022294643680148984704
:101C70000020EBE748000020000E002070B504466D
:101C80000D4604480078022803D02946204601F07A
:101C900045F870BD540000202DE9FC4106460D4674
:101CA000174600200090019007F00F0040F0200040
:101CB0008DF80000002404E0315D601C0DF8001078
:101CC00084B2AC4201DA072CF6DB04E00021601C90
:101CD0000DF8001084B2072CF8DB082269464FF497
:101CE000F96001F047F8072D02DD0720BDE8FC810F
:101CF0002846FBE77CB506460C4600200090019084
:101D0000082C01DB802C01DD00207CBDC4F3032006
:101D100040F010008DF80000E0B28DF801000025C1
:101D200005E0715DA81C0DF80010681C85B2062D39
:101D3000F7DB082269464FF4F96001F01BF8012037
:101D400002490870FFF732FE0620DEE73C00002063
:101D50007CB50546002000900190002404E000209E
:101D60000DF80400601C84B2082CF8DB05F00F00AD
:101D700040F030008DF8000000208DF801008DF853
:101D80000200082269464FF4F96000F0F3FF7CBDC1
:101D90002DE9F04107460C46082C01DB802C03DDC1
:101DA0004FF0FF30BDE8F081002504E0785D0A497E
:101DB0004855681C85B2A542F8DB00200749087029
:101DC00021463846FFF796FFC6B205480680A01B9D
:101DD000044908800020E5E780050020400000203D
:101DE00046000020440000207CB506460D46002039
:101DF00000900190002404E000200DF80400601C15
:101E000084B2082CF8DB0DB1072D02DD4FF0FF3056
:101E10007CBD05F00F008DF80000002404E0315D6A
:101E2000601C0DF8001084B2AC42F8DB0822694651
:101E30004FF4F96000F09EFF0020E9E72DE9FC4136
:101E400005460F4600240026687800F07F045020E5
:101E50008DF800008DF8014000208DF8020032203E
:101E60008DF8030000208DF80400C8208DF80500CF
:101E7000012C04D0022C0ED0032C2BD11FE02046C5
:101E800000F0A6FD002000F09DFD19480078022812
:101E900000D1012623E0FFF763FC032805D02221AF
:101EA000102000F00DFFBDE8FC81204600F090FD01
:101EB000002000F087FD012000F09EFF0FE020468B
:101EC00000F086FD002000F07DFD0621684600F050
:101ED00025FF04E01221102000F0F2FEE3E700BF2E
:101EE0001EB90621684600F019FF00BFDBE70000BD
:101EF0005400002002460020022900D10120704732
:101F00007CB504460E46607800F07F05012D04D0B4
:101F1000022D11D0032D29D119E051208DF8000098
:101F200001208DF801000221684600F0F7FE0A202A
:101F3000FEF715FCFEF752FF51208DF8000002203D
:101F40008DF801000221684600F0E8FE13E0512000
:101F50008DF8000003208DF801000221684600F092
:101F6000DDFE0A20FEF7FBFBFEF738FF12211120F1
:101F700000F0A6FE00BF00BF7CBD02460020022983
:101F800000D1012070477CB504460E46002500BFF5
:101F9000607845EA0045A07845EA0025E0780543E9
:101FA0006FF07F40854207D154208DF80000012159
:101FB000684600F0B3FE03E03121142000F080FEFB
:101FC0007CBD02460020042900D101207047F0B5F5
:101FD00091B005460F46687800F07F06012E15D1B6
:101FE000052459208DF804008DF805607F208DF8B8
:101FF000060001208DF807008DF80840200A8DF8B2
:102000000900062101A800F089FE04E01221192030
:1020100000F056FE00BF00BF11B0F0BD0246002028
:10202000704770B5A2B004460E4662208DF80800D5
:1020300060788DF80900A0788DF80A0060780502B4
:10204000A078054328464FF28612A91A954217D068
:102050000FDCA0F58050A0F50D7000287DD0A0F514
:102060005E405538002841D0712877D0FB2876D1C2
:102070007AE003294CD006290BD01129F7D119E0B9
:10208000FFF76EFB8DF80B00042102A800F046FE5E
:10209000DFE0FFF765FB8DF80B00FFF761FB8DF8C4
:1020A0000C00FFF75DFB8DF80D00062102A800F083
:1020B00035FECEE0FFF754FB8DF80B005A208DF86B
:1020C0000C008DF80D008DF80E008DF80F008DF8C6
:1020D00010008DF811008DF812008DF813008DF8A6
:1020E00014000D2102A800F019FEB2E0FFF738FB42
:1020F0008DF80B004A208DF80C008DF80D008DF83E
:102100000E008DF80F00082102A800F007FEA0E0E5
:10211000FFF726FB8DF80B005A208DF80C008DF888
:102120000D008DF80E008DF80F008DF810008DF861
:1021300011008DF812008DF813008DF814008DF841
:1021400015008DF816008DF817008DF818008DF821
:1021500019008DF81900132102E059E034E073E012
:1021600002A800F0DBFD74E0FFF7FAFA8DF80B002F
:102170005A208DF80C008DF80D008DF80E008DF8AA
:102180000F008DF810008DF811008DF812008DF8F9
:1021900013008DF814008DF815008DF816008DF8D9
:1021A00017008DF818008DF819008DF819008DF8BA
:1021B0001A008DF81B008DF81C008DF81D001621EB
:1021C00002A800F0ABFD44E0FFF7CAFA8DF80B005F
:1021D00011208DF80C0022208DF80D0033208DF891
:1021E0000E0044208DF80F0055208DF81000662059
:1021F0008DF8110077208DF8120088208DF81300DB
:1022000099208DF814000D2102A800F087FD20E030
:1022100001AAD11D2846FEF7A1FB80B962208DF8E6
:10222000080060788DF80900A0788DF80A00BDF8E4
:102230000400C01C81B202A800F070FD03E031214F
:10224000222000F03DFD04E03121222000F038FD85
:1022500000BF00BF22B070BD02460020032901D09C
:10226000072900D1012070472DE9F0418AB00646C8
:102270008846707800F07F05012D06D0022D46D0EB
:10228000112D03D0122D7DD142E000BF002000F0BF
:1022900081FD002804DD3721272000F011FD9FE09B
:1022A0005148057067208DF814008DF81550012DE8
:1022B00003D14E480078012805D0112D0DD14B488F
:1022C0000078032809D1002404E00020484908557B
:1022D000601C84B2102CF8DB09E0002405E04548BE
:1022E000005D43490855601C84B2102CF7DB0024C4
:1022F00006E03F48015DA01C05AA1154601C84B291
:10230000102CF6DB122105A800F008FD68E000BFE4
:1023100001273548007820B92421272000F0D0FC7F
:102320005EE0022D03D130480078012805D1122D3E
:1023300008D12D480078112804D02421272000F04E
:10234000BFFC4DE02848027801A92A4800F0E8FBCC
:10235000002409E0A01C305C01A9095D884201D07D
:10236000002703E0601C84B2102CF3DB00BFCFB168
:1023700067208DF814008DF81550022105A800F093
:10238000CDFC00E027E0022D03D1012000F01AFB74
:1023900004E0122D02D1032000F014FB00201249AA
:1023A000087017E014480078401C1349087008466C
:1023B0000078022807DB002000F01EFD36212720D0
:1023C00000F07EFC03E03521272000F079FC00209E
:1023D0000549087004E01221272000F071FC00BFBD
:1023E00000BF0AB0BDE8F081590000205A0000206B
:1023F0000C0E0020843400085B00002010B503465A
:102400000A4600205C7804F07F01012901D01129DF
:1024100003D1022A01D1012006E0022901D01229AC
:1024200002D1122A00D1012010BD00002DE9FC418B
:1024300005460F46687800F07F06AC7816B1032E8B
:1024400034D119E0012C03D0022C01D0032C0ED181
:1024500000201A4908701A49087068208DF8000099
:102460008DF801600221684600F058FC03E031213C
:10247000282000F025FC1EE0012C03D0022C01D006
:10248000032C0ED101200D4908700D4908706820F9
:102490008DF800008DF801600221684600F03EFCD6
:1024A00003E03121282000F00BFC04E01221282059
:1024B00000F006FC00BF00BFBDE8FC81600000200A
:1024C0006100002002460020032900D1012070474E
:1024D0002DE9FC4704460E4660780702A0780743C2
:1024E000A7F59050343830B1A0F55E40C638F0B151
:1024F0008A285AD11AE0F01E85B22A46E11C3846D5
:10250000FEF75EFA68B96E208DF8000060788DF8ED
:102510000100A0788DF802000321684600F0FEFB60
:1025200003E072212E2000F0CBFB43E000BFF01E41
:102530001FFA80F808F1010000EBD071C1F34F09D8
:1025400040F2FF1AD14504DD31212E2000F0B8FB06
:1025500030E0002517E0032101EB4501605C01211B
:1025600001EB4501414506DA042101EB4501615CBF
:1025700040EA012001E040F47F40691C0F4A22F844
:102580001100681CC5B24D45E5DBFEF77FFD6E20EE
:102590008DF8000060788DF80100A0788DF80200B9
:1025A0000321684600F0BAFB04E031212E2000F040
:1025B00087FB00BF00BFBDE8FC8700006001002072
:1025C00002460020042900DB012070472DE9FC476A
:1025D00005460F46687800F07F08E878A97840EA59
:1025E00001290026002409E0404800EB041000887F
:1025F000484501D1012603E0601C84B2072CF3DBBF
:1026000000BF71208DF8000068788DF80100A8786F
:102610008DF80200E8788DF80300B8F1010F06D0BC
:10262000B8F1020F20D0B8F1030F57D13BE026B923
:102630003121084600F044FB55E02C4800EB041023
:1026400039464268284690472948007820B9312108
:10265000084600F035FB46E000208DF80400052117
:102660006846FFF70BFB3EE026B93121084600F033
:1026700027FB38E01D4800EB0410007B20B9242123
:10268000312000F01DFB2EE0184901EB0411886891
:1026900080470020154901EB0411087304216846A6
:1026A000FFF7ECFA1FE026B93121084600F008FBDD
:1026B00019E00E4800EB0410007B20B924213120E2
:1026C00000F0FEFA0FE0094800EB0410007B8DF8E3
:1026D000040005216846FFF7D1FA04E012213120F9
:1026E00000F0EEFA00BF00BFBDE8FC8768000020E4
:1026F0006400002010B5024604290EDBD0789478DF
:1027000040EA0423B3F57F4F05D10C2901DB0120FA
:1027100010BD0020FCE70120FAE70020F8E70000E8
:102720007CB504460E46244D04E02846FEF7EAFA3E
:1027300005F5806521488542F7D3E07800062179C8
:1027400040EA0140617940EA0120A17908431C492F
:102750000860E0790006217A40EA0140617A40EAA7
:102760000120A17A08431749086000201649086033
:10277000134800681049884207D31148006811497E
:10278000096808441149884204D93121342000F0F5
:1027900097FA7CBD74208DF8000020208DF8010090
:1027A00004208DF802008DF803000421684600F033
:1027B000B5FA00BFEDE700000040000800F4000893
:1027C000D8000020DC000020E0000020009000087D
:1027D000024600200A2900DB012070472DE9FC4752
:1027E00005460E4695F80190B01E87B2002418E009
:1027F000A01C15F80080601CB84203DAE01C285CBD
:1028000048EA00280D4909680D4A126888184146AF
:10281000FEF782FA0A480068801C09490860A01C7B
:1028200084B2BC42E4DB76208DF800008DF8019084
:102830000221684600F072FABDE8FC87D80000204B
:10284000E000002002460020012070473EB504460B
:102850000D461548006815490968884204D0722160
:10286000372000F02DFA3EBD4AF2A5511048FEF780
:1028700053FA4AF2A5510E48801CFEF74DFA772014
:102880008DF80400012101A800F048FA0020009012
:1028900002E00098401C009042F2107100988842BB
:1028A000F7D300BFDFE70000E0000020DC000020DD
:1028B00000F8000802460020012070477CB504465D
:1028C0000E46607800F07F056DB97E208DF800001F
:1028D0008DF8015006480078022808D00221684689
:1028E00000F01CFA03E012213E2000F0E9F97CBD63
:1028F0005400002002460020022900D10120704728
:102900007CB505460E46687800F07F04012C02D0A5
:10291000022C1AD10CE001200F490870C5208DF857
:1029200000008DF801400221684600F0F7F911E03F
:10293000022009490870C5208DF800008DF801407B
:102940000221684600F0EAF904E01221852000F037
:10295000B7F900BF00BF7CBDE400002002460020A4
:10296000022900D1012070470EB50020009001908F
:10297000029005480090054801900548029068467D
:10298000FEF730FF0EBD0000AD2C0008792B0008CB
:102990006D2B000810B5012000F00CFA002805DAB4
:1029A000012000F015F8002000F00CF8002000F0E5
:1029B00001FA002802DA00200149087010BD000069
:1029C0005B00002001490870704700005A00002099
:1029D0000149087070470000550000202DE9F047BC
:1029E0008046894600200F4908700F480068041F80
:1029F0000E4909680819FEF7AAF90546A6083146E6
:102A00000A480068FDF77CFE0746AF4207D14FF049
:102A1000A5310748FEF78CF9012002490870BDE88E
:102A2000F087000064000020DC000020D8000020B7
:102A300000F8000870B504460D46012003490870EF
:102A40000348FEF75FF9FEF7FDFA70BD6400002051
:102A500000FC00087047000070B504460D460120D8
:102A6000034908700348FEF74DF9FEF7EBFA70BD15
:102A70006400002000FC0008704700002DE9F05FB2
:102A800004468B4600201F490870207900066179B2
:102A900040EA0140A17940EA0120E17940EA0105DC
:102AA000207A0006617A40EA0140A17A40EA0120DA
:102AB000E17A40EA010AB5F1006F21D3124885425C
:102AC0001ED205EB0A07874200D907464FEA952830
:102AD0004FEA882807F2FF304FEA90294FEA892908
:102AE000464604E03046FEF70DF906F580664E4591
:102AF000F8D30648FEF706F901200249087000BF26
:102B0000BDE8F09F640000200000010800F8000804
:102B10007047704710B5FEF797FEFFF73BFF10BDFB
:102B200010B50346012A09D1002004E01C5CE443EF
:102B30000C54441CA0B21028F8DB16E0112A14D162
:102B4000002010E0022803DA1C5CE4430C5408E087
:102B50000E2804DB1C5C04F00F040C5401E01C5C28
:102B60000C54441CA0B21028ECDB10BD00B5034689
:102B7000012000F041F900BD2DE9F04705468946E6
:102B80001746012000F04AF927B1012000F034F97E
:102B9000BDE8F0872E7868784FEAD018002476E0F8
:102BA00004EB84003E4911F82000B04200D06CE0F4
:102BB0003C480078022809D104EB8400384901EB35
:102BC0008000C07B10B900F0A7F8E1E7FEF7C8FD70
:102BD000012806D104EB8400314901EB8000007B21
:102BE000A8B1FEF7BDFD022806D104EB84002C49F4
:102BF00001EB8000407B50B1FEF7B2FD03280BD102
:102C000004EB8400264901EB8000807B20B97F2102
:102C1000304600F055F8BBE7FEF79CFD04EB84015D
:102C20001F4A02EB8101497C884204DA3321304695
:102C300000F046F8ACE704EB8400194901EB800092
:102C4000494682682846904720B91321304600F053
:102C500037F89DE704EB8400114901EB8000007C0C
:102C6000012805D1B8F1010F02D10F49087002E027
:102C700000200D49087004EB8400094901EB800035
:102C8000494642682846904782E7601CC4B2102C2F
:102C900086DB1121304600F013F800BF78E7000012
:102CA00044330008540000203800002010B50446CA
:102CB000012000F0B3F810BD10B5FFF755FE10BDB0
:102CC0007CB505460C460020009001907E2D00D179
:102CD0007CBD782C02D0012000F08EF80D480078E1
:102CE00002280AD1112C07D0122C05D0312C03D088
:102CF0007E2C01D07F2C00D1EAE77F208DF80000E8
:102D00008DF801508DF8024003216846FEF780FDE2
:102D100000BFDDE7540000207047000070B5044696
:102D20000D46012000F068F805480078012800D120
:102D300070BD29462046FEF76BFD00BFF8E7000096
:102D40003800002070B504460D461646B4F5F86FFD
:102D500005D132462946002000F06CF808E040F228
:102D6000DF70844204D132462946012000F062F827
:102D700070BD000070B504460D46164633462A461F
:102D800021460348FDF709FF0148FDF7A1FF70BD8B
:102D9000600500200146022901DB0020704704483D
:102DA00050F8210008B10120F8E70020F6E7000004
:102DB000300000200146022901DB002070470D4849
:102DC00050F8210008B90020F8E70A4850F821001F
:102DD000012805D10020074A42F82100401EEDE7F6
:102DE000044850F82100401E024A42F82100012008
:102DF000E4E7000030000020022800DB704718B92B
:102E000042F21171044A1160012803D144F6216194
:102E1000014A516000BFF1E730000020022800DBCA
:102E200070470021024A42F8201000BFF8E7000076
:102E3000300000202DE9F04107460C4615464FF0C2
:102E4000FF360CB1082D01D0BDE8F0811FB901207B
:102E50003549087002E002203349087020784FEAB3
:102E60002018B8F1000F09D0B8F1010F0BD0B8F15C
:102E7000020F2AD0B8F1030F51D13BE0294620467A
:102E8000FEF7D8FE4CE029480078022802D02748F7
:102E90000078C8B9FEF736FC24480078022806D12D
:102EA0002348052243682348018823489847294638
:102EB0002046FEF713FE06461EB902201B49087085
:102EC00002E00020194908702AE01848007802281A
:102ED0000FD11A48007801280BD129462046FEF769
:102EE00097FD0646002E04DAFEF70CFC00200F4981
:102EF000087015E00D48007801280FD110480078BF
:102F000001280BD129462046FEF736FE0646002E44
:102F100004DAFEF7F7FB00200449087000E000BF68
:102F200000BF00BF90E70000540000203A000020DE
:102F3000000E002052000020000600203B00002070
:102F40003C00002000000000B71DC1046E3B820958
:102F5000D926430DDC7604136B6BC517B24D861A68
:102F60000550471EB8ED08260FF0C922D6D68A2F85
:102F700061CB4B2B649B0C35D386CD310AA08E3CA4
:102F8000BDBD4F3870DB114CC7C6D0481EE093451D
:102F9000A9FD5241ACAD155F1BB0D45BC2969756EC
:102FA000758B5652C836196A7F2BD86EA60D9B6357
:102FB00011105A6714401D79A35DDC7D7A7B9F70E8
:102FC000CD665E74E0B6239857ABE29C8E8DA191DE
:102FD000399060953CC0278B8BDDE68F52FBA58234
:102FE000E5E66486585B2BBEEF46EABA3660A9B7C1
:102FF000817D68B3842D2FAD3330EEA9EA16ADA4E0
:103000005D0B6CA0906D32D42770F3D0FE56B0DD0E
:10301000494B71D94C1B36C7FB06F7C32220B4CEEF
:10302000953D75CA28803AF29F9DFBF646BBB8FBDA
:10303000F1A679FFF4F63EE143EBFFE59ACDBCE85B
:103040002DD07DEC77708634C06D4730194B043D30
:10305000AE56C539AB0682271C1B4323C53D002E47
:103060007220C12ACF9D8E1278804F16A1A60C1B0C
:1030700016BBCD1F13EB8A01A4F64B057DD00808C3
:10308000CACDC90C07AB9778B0B6567C699015715C
:10309000DE8DD475DBDD936B6CC0526FB5E61162CB
:1030A00002FBD066BF469F5E085B5E5AD17D1D570E
:1030B0006660DC5363309B4DD42D5A490D0B194487
:1030C000BA16D84097C6A5AC20DB64A8F9FD27A5A1
:1030D0004EE0E6A14BB0A1BFFCAD60BB258B23B693
:1030E0009296E2B22F2BAD8A98366C8E41102F83C8
:1030F000F60DEE87F35DA9994440689D9D662B907F
:103100002A7BEA94E71DB4E0500075E4892636E98D
:103110003E3BF7ED3B6BB0F38C7671F7555032FACE
:10312000E24DF3FE5FF0BCC6E8ED7DC231CB3ECF91
:1031300086D6FFCB8386B8D5349B79D1EDBD7CDCB8
:103140005AA0BDD8EEE00C6959FDCD6D80DB8E60D4
:1031500037C64F643296087A858BC97E5CAD8A7318
:10316000EBB04B77560D044FE110C54B3836864611
:103170008F2B47428A7B005C3D66C158E4408255F4
:10318000535D43519E3B1D252926DC21F0009F2CD9
:10319000471D5E28424D1936F550D8322C769B3F9C
:1031A0009B6B5A3B26D6150391CBD40748ED970A63
:1031B000FFF0560EFAA011104DBDD014949B931938
:1031C0002386521D0E562FF1B94BEEF5606DADF80A
:1031D000D7706CFCD2202BE2653DEAE6BC1BA9EB64
:1031E0000B0668EFB6BB27D701A6E6D3D880A5DECD
:1031F0006F9D64DA6ACD23C4DDD0E2C004F6A1CDB0
:10320000B3EB60C97E8D3EBDC990FFB910B6BCB4AA
:10321000A7AB7DB0A2FB3AAE15E6FBAACCC0B8A71F
:103220007BDD79A3C660369B717DF79FA85BB49266
:103230001F4675961A163288AD0BF38C742DB0812B
:10324000C330718599908A5D2E8D4B59F7AB085428
:1032500040B6C95045E68E4EF2FB4F4A2BDD0C4777
:103260009CC0CD43217D827B9660437F4F46007298
:10327000F85BC176FD0B86684A16476C9330046193
:10328000242DC565E94B9B115E565A158770191898
:10329000306DD81C353D9F0282205E065B061D0BFB
:1032A000EC1BDC0F51A69337E6BB52333F9D113E1A
:1032B0008880D03A8DD097243ACD5620E3EB152D57
:1032C00054F6D4297926A9C5CE3B68C1171D2BCC4D
:1032D000A000EAC8A550ADD6124D6CD2CB6B2FDF43
:1032E0007C76EEDBC1CBA1E376D660E7AFF023EAD4
:1032F00018EDE2EE1DBDA5F0AAA064F4738627F9CF
:10330000C49BE6FD09FDB889BEE0798D67C63A80A9
:10331000D0DBFB84D58BBC9A62967D9EBBB03E937E
:103320000CADFF97B110B0AF060D71ABDF2B32A61D
:103330006836F3A26D66B4BCDA7B75B8035D36B54A
:10334000B440F7B1100000003D1E0008F51E000853
:10335000010101010100000011000000011F00082F
:103360007B1F00080101010101000000270000008F
:1033700069220008FD23000801010100010000008E
:10338000280000002D240008C524000801010101C7
:10339000010000003E000000BD280008F5280008DC
:1033A0000101010101000000850000000129000861
:1033B0005D29000801010101010000002200000058
:1033C000232000085922000801010101000000002B
:1033D0002E000000D1240008C125000800010101D1
:1033E0000001000014000000871F0008C31F000830
:1033F000010101010000000019000000CF1F0008BA
:103400001D20000801010101000000003100000042
:10341000CD250008F526000801010101000000008B
:103420003400000021270008D12700080001010016
:103430000001000036000000DD27000845280008D4
:103440000001010000010000370000004D280008C5
:10345000B528000800010100000100000000000084
:10346000000000000000000000000000000000005C
:10347000000000000000000000000000000000004C
:1034800000000000000102030405060708090A0BFA
:103490000C0D0E0FB434000800000020E8000000FE
:1034A000AC1600089C350008E80000203815000024
:1034B000BC1600080000000001020304010203041E
:1034C00006070809020406080000000000000000CA
:1034D00000000000000000000000000000000000EC
:1034E00000000000000000000000000000000000DC
:1034F00000000000000000000000000000000000CC
:1035000000000000000000000001000000000000BA
:103510009A020000000000000100000000FF00000F
:103520007D2A0008132B00080000000002020000A2
:10353000DD290008132B0008000000000302000032
:10354000352A0008132B00080000000001FF0000CE
:10355000112B0008132B000800000000E0DF000022
:10356000792A0008132B0008000000000402000064
:10357000552A0008132B00080000000002DD00009F
:10358000592A0008132B0008000000000040000822
:0C3590000000000000000000010000002E
:04000005080000ED02
:00000001FF
